:100000000C9434000C9451000C9451000C94510049
:100010000C9451000C9451000C9451000C9451001C
:100020000C9451000C9451000C9451000C9451000C
:100030000C9451000C9451000C9451000C945100FC
:100040000C9451000C9451000C948F010C945100AD
:100050000C9451000C9451000C9451000C945100DC
:100060000C9451000C94510011241FBECFEFD8E026
:10007000DEBFCDBF11E0A0E0B1E0E2EAF3E002C0F4
:1000800005900D92A630B107D9F721E0A6E0B1E0C6
:1000900001C01D92AC33B207E1F70E9489010C94B4
:1000A000CF010C940000E0ECF0E0908195FFFDCFD3
:1000B0008093C60090E080E00895E0ECF0E080815D
:1000C0008823ECF78091C60090E0089588E0809343
:1000D000C400E2ECF0E0808186608083E1ECF0E037
:1000E000808188698083E0ECF0E080818260808399
:1000F00008958FE10E9453008FEF0E94530080E823
:100100000E94530080E80E94530080E80E94530040
:1001100080E80E94530080E00E94530080E00E942B
:10012000530080E00E94530080E00E945300089535
:10013000809107010E945300809104010E945300A6
:10014000809103010E945300809102010E9453009C
:10015000809101010E945300809100010E94530090
:10016000809106010E94530080E00E945300089590
:10017000189B75C0809107018061809307011C9BCB
:1001800074C0809107018860809307011B9B73C036
:10019000809107018460809307011A9B72C080914F
:1001A0000701826080930701199B71C0809107014C
:1001B0008160809307011D9B70C080910401806164
:1001C000809304014E9B6FC081E090E090931F01EB
:1001D00080931E014F996CC0109219011092180162
:1001E0004C9B6DC081E090E090933B0180933A017D
:1001F0004B9B6AC081E090E090932F0180932E0189
:100200001A9B67C081E090E09093290180932801B8
:100210001B9B64C081E090E090932D0180932C01A2
:100220001C9B61C081E090E090930F0180930E01D0
:100230001D9B5EC081E090E090933101809330017E
:10024000489B5BC081E090E090932B0180932A0152
:10025000499958C010921701109216010895809183
:1002600007018F7E809307018ACF80910701877FE6
:10027000809307018BCF809107018B7F80930701CB
:100280008CCF809107018D7F809307018DCF809166
:1002900007018E7F809307018ECF809104018F7EAE
:1002A000809304018FCF10921F0110921E0192CFF4
:1002B00081E090E0909319018093180191CF109202
:1002C0003B0110923A0194CF10922F0110922E010F
:1002D00097CF10922901109228019ACF10922D01E8
:1002E00010922C019DCF10920F0110920E01A0CF01
:1002F0001092310110923001A3CF10922B01109275
:100300002A01A6CF81E090E0909317018093160117
:1003100008950E94660078940E94B800FDCF1F9255
:100320000F920FB60F9211242F933F934F935F9329
:100330006F937F938F939F93AF93BF93EF93FF93AD
:100340000E945D008823C9F08F3FD9F08134E9F025
:100350008034F1F00E945300FF91EF91BF91AF9173
:100360009F918F917F916F915F914F913F912F91CD
:100370000F900FBE0F901F90189589E00E945300B8
:10038000EBCF89E00E945300E7CF0E947900E4CFD1
:100390000E945D000E945D000E949800DDCFF894ED
:0203A000FFCF8D
:0603A2007F7F7F7F8000D9
:00000001FF
